:100000000C9472000C9491000C9491000C9491004B
:100010000C9491000C9491000C9491000C9491001C
:100020000C9491000C9491000C9491000C9491000C
:100030000C9491000C9491000C9491000C949100FC
:100040000C9491000C9491000C9491000C949100EC
:100050000C9491000C9491000C9491000C949100DC
:100060000C9491000C9491000C9491000C949100CC
:100070000C9491000C9491000C9491000C949100BC
:100080000C9491000C9491000C9491000C949100AC
:100090000C9491000C9491000C9491000C9491009C
:1000A0000C9491000C9491000C9491000C9491008C
:1000B0000C9491000C9491000C9491000C9491007C
:1000C0000C9491000C9491000C9491000C9491006C
:1000D0000C9491000C9491000C9491000C9491005C
:1000E0000C94910011241FBECFEFD1E2DEBFCDBF33
:1000F00012E0A0E0B2E0ECEDF1E000E00BBF02C0E6
:1001000007900D92A030B107D9F712E0A0E0B2E05D
:1001100001C01D92A030B107E1F70E94AD000C9420
:10012000ED000C9400009C01F8948091C00087FDC4
:10013000FCCF8091C00086FDF8CF40E050E060E841
:1001400074E88EE190E00E94B0002150304030937E
:10015000C5002093C4007894089580E090E008954D
:1001600097FB092E05260ED057FD04D014D00AD0D7
:10017000001C38F450954095309521953F4F4F4FD6
:100180005F4F0895F6F790958095709561957F4F34
:100190008F4F9F4F0895A1E21A2EAA1BBB1BFD0192
:1001A0000DC0AA1FBB1FEE1FFF1FA217B307E40756
:1001B000F50720F0A21BB30BE40BF50B661F771FAE
:1001C000881F991F1A9469F760957095809590958E
:0C01D0009B01AC01BD01CF010895FFCFE1
:00000001FF
