:100000000C9472000C9491000C9491000C9491004B
:100010000C9491000C9491000C9491000C9491001C
:100020000C9491000C9491000C9491000C9491000C
:100030000C9491000C9491000C9491000C949100FC
:100040000C9491000C9491000C9491000C949100EC
:100050000C9491000C9491000C9491000C949100DC
:100060000C9491000C9491000C9491000C949100CC
:100070000C9491000C9491000C9491000C949100BC
:100080000C9491000C9491000C9491000C949100AC
:100090000C9491000C9491000C9491000C9491009C
:1000A0000C9491000C9491000C9491000C9491008C
:1000B0000C9491000C9491000C9491000C9491007C
:1000C0000C9491000C9491000C9491000C9491006C
:1000D0000C9491000C9491000C9491000C9491005C
:1000E0000C94910011241FBECFEFD1E2DEBFCDBF33
:1000F00012E0A0E0B2E0E0E6F2E000E00BBF02C0F8
:1001000007900D92A030B107D9F712E0A0E0B2E05D
:1001100001C01D92A030B107E1F70E94E7000C94E6
:100120002F010C9400009C0140E050E060E874E86E
:100130008EE190E00E94F200DA01C9010197089572
:10014000CF92DF92EF92FF920F931F93F89440ECBF
:10015000E42EF12C20E2F701208331ECC32ED12CC8
:10016000F601108202EC10E0F80110820E94930068
:10017000292F33272093C5008093C400F801808184
:1001800084608083F701808182608083F6018081B2
:100190008861808378941F910F91FF90EF90DF909A
:1001A000CF900895982F8091C00085FFFCCF80915B
:1001B000C0008F6B8093C0009093C600089580911B
:1001C000C00087FFFCCF8091C60090E0089580E8D2
:1001D00095E20E94A0000E94DF000E94D20080E011
:1001E00090E0089597FB092E05260ED057FD04D008
:1001F00014D00AD0001C38F45095409530952195C4
:100200003F4F4F4F5F4F0895F6F79095809570954B
:1002100061957F4F8F4F9F4F0895A1E21A2EAA1B21
:10022000BB1BFD010DC0AA1FBB1FEE1FFF1FA217A6
:10023000B307E407F50720F0A21BB30BE40BF50BA3
:10024000661F771F881F991F1A9469F7609570952C
:10025000809590959B01AC01BD01CF010895FFCF22
:00000001FF
